:020000040800F2
:100000000028002005060008A9050008AF05000823
:10001000B5050008BB050008C10500080000000088
:10002000000000000000000000000000C7050008FC
:10003000D305000800000000DF050008EB050008FC
:100040004D0600084D0600084D0600084D06000844
:100050004D0600084D0600084D0600084D06000834
:100060004D0600084D0600084D0600084D06000824
:100070004D0600084D0600084D0600084D06000814
:100080004D0600084D0600084D0600084D06000804
:100090004D0600084D0600084D0600084D060008F4
:1000A0004D0600084D0600084D0600084D060008E4
:1000B0004D0600084D060008000000004D0600082F
:1000C0004D06000800000000000000004D0600087A
:1000D000000000004D0600084D060008000000006A
:1000E0004D0600084D0600084D06000800000000FF
:1000F0000000000000000000000000000000000000
:0C01000000000000000000005FF808F1A3
:10010C0010B5054C237833B9044B13B10448AFF345
:10011C0000800123237010BD0C00002000000000A3
:10012C00441D000808B5034B1BB103490348AFF34A
:10013C00008008BD0000000010000020441D0008D5
:10014C0080B586B002AF0346FB71FB7923F00F0339
:10015C00FB73FB791B01BB73FB7B43F00C03DBB222
:10016C003B72FB7B43F00803DBB27B72BB7B43F03F
:10017C000C03DBB2BB72BB7B43F00803DBB2FB723C
:10018C0007F108026423009304237E21034800F046
:10019C009BFE00BF1037BD4680BD00BF280000206D
:1001AC0080B586B002AF0346FB71FB7923F00F03D9
:1001BC00FB73FB791B01BB73FB7B43F00D03DBB2C1
:1001CC003B72FB7B43F00903DBB27B72BB7B43F0DE
:1001DC000D03DBB2BB72BB7B43F00903DBB2FB72DA
:1001EC0007F108026423009304237E21034800F0E6
:1001FC006BFE00BF1037BD4680BD00BF280000203D
:10020C0080B500AF3320FFF79BFF3220FFF798FF3C
:10021C00322000F079FA2820FFF792FF322000F00C
:10022C0073FA0120FFF78CFF322000F06DFA0620E4
:10023C00FFF786FF322000F067FA0C20FFF780FFF3
:10024C00322000F061FA0220FFF77AFF322000F032
:10025C005BFA8020FFF774FF00BF80BD80B582B0D1
:10026C0000AF786006E07B685A1C7A601B781846F1
:10027C00FFF796FF7B681B78002BF4D100BF00BF03
:10028C000837BD4680BD80B500AF0120FFF758FF91
:10029C0000BF80BD80B584B000AF786039607B68EA
:1002AC00002B04D13B68DBB2803BFB7303E03B6863
:1002BC00DBB2403BFB73FB7B1846FFF741FF00BFF3
:1002CC001037BD4680BD000080B500AFFFF7DBFFE7
:1002DC00FFF796FF00210020FFF7DCFF0548FFF732
:1002EC00BDFF00210120FFF7D5FF0348FFF7B6FF44
:1002FC0000BF80BD5C1D0008701D000880B500AFFC
:10030C0000F0A0F900F028F800F090F800F060F888
:10031C00FFF7DAFF4FF4967000F0F6F90021002099
:10032C00FFF7B8FF0A48FFF799FF0122202109487F
:10033C0000F06EFC4FF47A7000F0E6F900222021F8
:10034C00044800F065FC4FF47A7000F0DDF9E5E745
:10035C007C1D00080008014080B590B000AF07F18B
:10036C00180328220021184601F0DEFC3B1D002258
:10037C001A605A609A60DA601A610223BB61012329
:10038C00BB621023FB6200237B6307F11803184642
:10039C0001F0A0F80346002B01D000F085F80F23E4
:1003AC007B600023BB600023FB6000233B610023C8
:1003BC007B613B1D0021184601F00EFB0346002B10
:1003CC0001D000F071F800BF4037BD4680BD000081
:1003DC0080B500AF124B134A1A60114B124A5A6087
:1003EC000F4B00229A600E4B0022DA600C4B4FF43C
:1003FC0080421A610A4B00225A61094B00229A6111
:10040C00074B0022DA61064B00221A62044800F006
:10041C0017FC0346002B01D000F046F800BF80BD4E
:10042C002800002000540040A086010080B586B052
:10043C0000AF07F1080300221A605A609A60DA6074
:10044C00174B9B69164A43F004039361144B9B6949
:10045C0003F004037B607B68114B9B69104A43F0EB
:10046C00080393610E4B9B6903F008033B603B68E8
:10047C00002220210B4800F0CBFB2023BB60012382
:10048C00FB6000233B6102237B6107F108031946E3
:10049C00044800F041FA00BF1837BD4680BD00BFCC
:1004AC00001002400008014080B400AF72B600BFDB
:1004BC00FEE7000080B483B000AF0E4B9B690D4A81
:1004CC0043F0010393610B4B9B6903F001037B60C9
:1004DC007B68084BDB69074A43F08053D361054BBB
:1004EC00DB6903F080533B603B6800BF0C37BD46B3
:1004FC0080BC70470010024080B58AB000AF7860B5
:10050C0007F1140300221A605A609A60DA607B6863
:10051C001B681E4A934234D11D4B9B691C4A43F005
:10052C00080393611A4B9B6903F008033B613B6919
:10053C004FF440737B611223BB610023FB610323E7
:10054C003B6207F114031946124800F0E5F9124B0F
:10055C005B687B627B6A43F0E0637B627B6A43F09F
:10056C0002037B620C4A7B6A5360094BDB69084AC5
:10057C0043F40013D361064BDB6903F40013FB60F7
:10058C00FB6800BF2837BD4680BD00BF005400404B
:10059C0000100240000C01400000014080B400AF8C
:1005AC00FEE780B400AFFEE780B400AFFEE780B496
:1005BC0000AFFEE780B400AFFEE780B400AF00BF31
:1005CC00BD4680BC704780B400AF00BFBD4680BC48
:1005DC00704780B400AF00BFBD4680BC704780B58B
:1005EC0000AF00F075F800BF80BD80B400AF00BF55
:1005FC00BD4680BC704700000C480D490D4A0023D5
:10060C0002E0D458C4500433C4188C42F9D30A4ABB
:10061C000A4C002301E013600432A242FBD3FFF723
:10062C00E4FF01F05DFBFFF769FE7047000000205E
:10063C000C000020B81D00080C00002080000020D9
:10064C00FEE7000080B500AF084B1B68074A43F07B
:10065C0010031360032000F02BF90F2000F008F8B2
:10066C00FFF728FF0023184680BD00BF0020024082
:10067C0080B582B000AF7860124B1A68124B1B78B1
:10068C0019464FF47A73B3FBF1F3B2FBF3F318464C
:10069C0000F035F90346002B01D001230EE07B68F6
:1006AC000F2B0AD8002279684FF0FF3000F00BF9BD
:1006BC00064A7B681360002300E0012318460837C4
:1006CC00BD4680BD00000020080000200400002072
:1006DC0080B400AF054B1B781A46054B1B681344BE
:1006EC00034A136000BFBD4680BC70470800002061
:1006FC007C00002080B400AF024B1B681846BD463E
:10070C0080BC70477C00002080B584B000AF78605E
:10071C00FFF7F0FFB8607B68FB60FB68B3F1FF3F4D
:10072C0005D00A4B1B781A46FB681344FB6000BFCC
:10073C00FFF7E0FF0246BB68D31AFA689A42F7D873
:10074C0000BF00BF1037BD4680BD00BF08000020B1
:10075C0080B485B000AF78607B6803F00703FB6062
:10076C000C4BDB68BB60BA684FF6FF031340BB60F1
:10077C00FB681A02BB68134343F0BF6343F40033B6
:10078C00BB60044ABB68D36000BF1437BD4680BC55
:10079C00704700BF00ED00E080B400AF044BDB6895
:1007AC001B0A03F007031846BD4680BC704700BF08
:1007BC0000ED00E080B483B000AF03463960FB71FC
:1007CC0097F90730002B0ADB3B68DAB20C4997F932
:1007DC0007301201D2B20B4483F800230AE03B68C5
:1007EC00DAB20849FB7903F00F03043B1201D2B2D1
:1007FC000B441A7600BF0C37BD4680BC704700BF57
:10080C0000E100E000ED00E080B489B000AFF860DA
:10081C00B9607A60FB6803F00703FB61FB69C3F105
:10082C000703042B28BF0423BB61FB690433062B8D
:10083C0002D9FB69033B00E000237B614FF0FF32E0
:10084C00BB6902FA03F3DA43BB681A407B699A402E
:10085C004FF0FF317B6901FA03F3D9437B680B40FE
:10086C00134318462437BD4680BC704780B582B010
:10087C0000AF78607B68013BB3F1807F01D301232B
:10088C000FE00A4A7B68013B53600F214FF0FF30A9
:10089C00FFF790FF054B00229A60044B07221A6069
:1008AC00002318460837BD4680BD00BF10E000E0AD
:1008BC0080B582B000AF78607868FFF749FF00BF61
:1008CC000837BD4680BD80B586B000AF0346B96021
:1008DC007A60FB7300237B61FFF75EFF78617A68B7
:1008EC00B9687869FFF790FF024697F90F30114607
:1008FC001846FFF75FFF00BF1837BD4680BD80B5B7
:10090C0082B000AF78607868FFF7B0FF03461846F6
:10091C000837BD4680BD000080B48BB000AF786056
:10092C00396000237B6200233B6261E101227B6A18
:10093C0002FA03F3FB613B681B68FA691340BB6165
:10094C00BA69FB699A4240F050813B685B68974AF0
:10095C0093425ED0954A934275D8954A934258D0AB
:10096C00934A93426FD8934A934252D0914A9342FE
:10097C0069D8914A93424CD08F4A934263D88F4A9C
:10098C00934246D08D4A93425DD8122B2AD8122B13
:10099C0059D801A252F823F01F0A0008F9090008DF
:1009AC000B0A00084D0A0008530A0008530A0008F5
:1009BC00530A0008530A0008530A0008530A000897
:1009CC00530A0008530A0008530A0008530A000887
:1009DC00530A0008530A0008530A0008010A0008C9
:1009EC00150A0008764A934213D02CE03B68DB686A
:1009FC003B6229E03B68DB6804333B6224E03B68E4
:100A0C00DB6808333B621FE03B68DB680C333B62FE
:100A1C001AE03B689B68002B02D104233B6213E075
:100A2C003B689B68012B05D108233B627B68FA6904
:100A3C001A6109E008233B627B68FA695A6103E09A
:100A4C0000233B6200E000BFBB69FF2B01D87B6831
:100A5C0001E07B6804337B61BB69FF2B02D87B6AA6
:100A6C009B0002E07B6A083B9B003B617B691A6838
:100A7C000F213B6901FA03F3DB431A40396A3B69E6
:100A8C0001FA03F31A437B691A603B685B6803F055
:100A9C008053002B00F0A9804A4B9B69494A43F0D4
:100AAC0001039361474B9B6903F00103BB60BB6877
:100ABC00454A7B6A9B08023352F82330FB607B6A01
:100ACC0003F003039B000F2202FA03F3DB43FA68E3
:100ADC001340FB607B683D4A93420DD07B683C4AD7
:100AEC00934207D07B683B4A934201D1022304E036
:100AFC00032302E0012300E000237A6A02F00302E0
:100B0C0092009340FA681343FB602F497B6A9B0861
:100B1C000233FA6841F823203B685B6803F48033A6
:100B2C00002B06D02C4B1A682B49BB6913430B6066
:100B3C0006E0294B1A68BB69DB43274913400B605D
:100B4C003B685B6803F40033002B06D0224B5A68D9
:100B5C002149BB6913434B6006E01F4B5A68BB69C4
:100B6C00DB431D4913404B603B685B6803F4801307
:100B7C00002B06D0184B9A681749BB6913438B603E
:100B8C0006E0154B9A68BB69DB43134913408B6035
:100B9C003B685B6803F40013002B1FD00E4BDA6824
:100BAC000D49BB691343CB601FE000BF000032103E
:100BBC000000311000002210000021100000121063
:100BCC00000011100010024000000140000801401C
:100BDC00000C014000100140000401400B4BDA688E
:100BEC00BB69DB4309491340CB607B6A01337B62F1
:100BFC003B681A687B6A22FA03F3002B7FF496AEEB
:100C0C0000BF00BF2C37BD4680BC704700040140BC
:100C1C0080B483B000AF78600B467B8013467B704A
:100C2C007B78002B03D07A887B681A6103E07B8881
:100C3C001A047B681A6100BF0C37BD4680BC704734
:100C4C0080B584B000AF78607B68002B01D10123A4
:100C5C002BE17B6893F83D30DBB2002B06D17B682F
:100C6C00002283F83C207868FFF746FC7B6824223E
:100C7C0083F83D207B681B681A687B681B6822F030
:100C8C0001021A607B681B681A687B681B6842F457
:100C9C0000421A607B681B681A687B681B6822F428
:100CAC0000421A6000F0EAFFF8607B685B68814ADA
:100CBC00934207D8FB68804A934294BF01230023D8
:100CCC00DBB206E0FB687D4A934294BF012300230C
:100CDC00DBB2002B01D00123E7E0FB68784AA2FBD2
:100CEC0003239B0CBB607B681B685B6823F03F0194
:100CFC007B681B68BA680A435A607B681B681B6A6E
:100D0C0023F03F017B685B686A4A934202D8BB6858
:100D1C00013309E0BB684FF4967202FB03F3694A96
:100D2C00A2FB03239B0901337A6812680B431362FD
:100D3C007B681B68DB6923F44F4222F0FF027B685F
:100D4C005B685C498B4219D8FB68591E7B685B68F1
:100D5C005B00B1FBF3F3591C40F6FC730B40002B0A
:100D6C000AD0FB68591E7B685B685B00B1FBF3F330
:100D7C000133C3F30B0351E004234FE07B689B6802
:100D8C00002B11D1FB68581E7B6859680B465B0021
:100D9C000B44B0FBF3F30133C3F30B03002B0CBF79
:100DAC0001230023DBB212E0FB68581E7B685968F4
:100DBC000B469B000B4499000B44B0FBF3F301333F
:100DCC00C3F30B03002B0CBF01230023DBB2002B5E
:100DDC0001D0012322E07B689B68002B0ED1FB68BD
:100DEC00581E7B6859680B465B000B44B0FBF3F351
:100DFC000133C3F30B0343F400430FE0FB68581EAD
:100E0C007B6859680B469B000B4499000B44B0FB64
:100E1C00F3F30133C3F30B0343F4404379680968DC
:100E2C001343CB617B681B681B6823F0C0017B6894
:100E3C00DA697B681B6A1A437B681B680A431A6071
:100E4C007B681B689B6823F4034323F0FF037A68D9
:100E5C0011697A68D26811437A6812680B439360FF
:100E6C007B681B68DB6823F0FF017B685A697B6831
:100E7C009B691A437B681B680A43DA607B681B68B2
:100E8C001A687B681B6842F001021A607B680022BA
:100E9C001A647B68202283F83D207B6800221A6349
:100EAC007B68002283F83E20002318461037BD468D
:100EBC0080BD00BFA08601007F841E00FF083D009E
:100ECC0083DE1B43D34D621080B588B002AFF8604F
:100EDC007A601A460B467B8113463B81FFF70AFC6E
:100EEC007861FB6893F83D30DBB2202B40F0E0805A
:100EFC007B690093192301227049F86800F064F9AA
:100F0C000346002B01D00223D3E0FB6893F83C305E
:100F1C00012B01D10223CCE0FB68012283F83C2099
:100F2C00FB681B681B6803F00103012B07D0FB68EF
:100F3C001B681A68FB681B6842F001021A60FB68A8
:100F4C001B681A68FB681B6822F400621A60FB6855
:100F5C00212283F83D20FB68102283F83E20FB6899
:100F6C0000221A64FB687A685A62FB683A895A85CF
:100F7C00FB685B8D9AB2FB681A85FB68504ADA6293
:100F8C0079897B693A6AF86800F09CF80346002B73
:100F9C0001D001238DE000233B61FB681B685B697A
:100FAC003B61FB681B689B693B613B6966E07A6946
:100FBC00396AF86800F0DEF90346002B0DD0FB68A7
:100FCC001B6C042B07D1FB681B681A68FB681B6839
:100FDC0042F400721A6001236BE0FB685B6A1A78BA
:100FEC00FB681B681A61FB685B6A5A1CFB685A62D7
:100FFC00FB685B8D9BB2013B9AB2FB685A85FB6820
:10100C001B8D013B9AB2FB681A85FB681B685B69F8
:10101C0003F00403042B1BD1FB681B8D002B17D092
:10102C00FB685B6A1A78FB681B681A61FB685B6A71
:10103C005A1CFB685A62FB685B8D9BB2013B9AB2EF
:10104C00FB685A85FB681B8D013B9AB2FB681A85BD
:10105C007A69396AF86800F0CEF90346002B0DD096
:10106C00FB681B6C042B07D1FB681B681A68FB68B8
:10107C001B6842F400721A6001231AE0FB681B8D96
:10108C00002B94D1FB681B681A68FB681B6842F440
:10109C0000721A60FB68202283F83D20FB68002256
:1010AC0083F83E20FB68002283F83C20002300E0FC
:1010BC00022318461837BD4680BD00BF0200100041
:1010CC000000FFFF80B588B002AFF8607A603B602B
:1010DC000B467B81FB68DB6A7B617B69082B06D046
:1010EC007B69012B03D07B6913F5803F08D1FB682A
:1010FC001B681A68FB681B6842F480721A600BE06C
:10110C00FB681B6B122B07D1FB681B681A68FB680A
:10111C001B6842F480721A603B6800937B68002263
:10112C004FF00111F86800F04FF80346002B0DD07A
:10113C00FB681B681B6803F48073B3F5807F03D1D5
:10114C00FB684FF400721A64032335E0FB681B69DB
:10115C00B3F5804F08D17B89DBB21A46FB681B685C
:10116C0002F0FE021A611BE07B89DB11DBB203F09B
:10117C000603DBB263F00F03DAB2FB681B681A617B
:10118C003B687A680E49F86800F075F80346002B46
:10119C0001D0012310E07B89DAB2FB681B681A616D
:1011AC003B687A680749F86800F065F80346002B3D
:1011BC0001D0012300E0002318461837BD4680BD3E
:1011CC00080001000200010080B584B000AFF86097
:1011DC00B9603B601346FB7125E03B68B3F1FF3F00
:1011EC0021D0FFF787FA0246BB69D31A3A689A42B4
:1011FC0002D33B68002B16D1FB6800221A63FB68F4
:10120C00202283F83D20FB68002283F83E20FB68F7
:10121C001B6C43F02002FB681A64FB68002283F805
:10122C003C20012323E0BB681B0CDBB2012B0DD14E
:10123C00FB681B685B69DA43BB6813409BB2002BED
:10124C000CBF01230023DBB21A460CE0FB681B68C1
:10125C009B69DA43BB6813409BB2002B0CBF012384
:10126C000023DBB21A46FB799A42B6D0002318460B
:10127C001037BD4680BD80B584B000AFF860B96052
:10128C007A603B6051E0FB681B685B6903F4806328
:10129C00B3F5806F23D1FB681B681A68FB681B6869
:1012AC0042F400721A60FB681B686FF480625A612A
:1012BC00FB6800221A63FB68202283F83D20FB6840
:1012CC00002283F83E20FB681B6C43F00402FB6891
:1012DC001A64FB68002283F83C20012346E07B68FB
:1012EC00B3F1FF3F21D0FFF705FA02463B68D31A52
:1012FC007A689A4202D37B68002B16D1FB680022D5
:10130C001A63FB68202283F83D20FB68002283F8D7
:10131C003E20FB681B6C43F02002FB681A64FB68E0
:10132C00002283F83C20012320E0BB681B0CDBB2BD
:10133C00012B0CD1FB681B685B69DA43BB6813405B
:10134C009BB2002B14BF01230023DBB20BE0FB6824
:10135C001B689B69DA43BB6813409BB2002B14BF1C
:10136C0001230023DBB2002B8DD10023184610374C
:10137C00BD4680BD80B584B000AFF860B9607A60BE
:10138C002DE0F86800F078F80346002B01D001231B
:10139C002DE0BB68B3F1FF3F21D0FFF7ABF902465C
:1013AC007B68D31ABA689A4202D3BB68002B16D159
:1013BC00FB6800221A63FB68202283F83D20FB683F
:1013CC00002283F83E20FB681B6C43F02002FB6874
:1013DC001A64FB68002283F83C20012307E0FB68B9
:1013EC001B685B6903F08003802BCAD1002318466D
:1013FC001037BD4680BD80B584B000AFF860B960D1
:10140C007A602DE0F86800F037F80346002B01D025
:10141C0001232DE0BB68B3F1FF3F21D0FFF76AF940
:10142C0002467B68D31ABA689A4202D3BB68002B77
:10143C0016D1FB6800221A63FB68202283F83D203A
:10144C00FB68002283F83E20FB681B6C43F02002F3
:10145C00FB681A64FB68002283F83C20012307E038
:10146C00FB681B685B6903F00403042BCAD10023DF
:10147C0018461037BD4680BD80B483B000AF78608D
:10148C007B681B685B6903F48063B3F5806F1BD1C9
:10149C007B681B686FF480625A617B6800221A6358
:1014AC007B68202283F83D207B68002283F83E2055
:1014BC007B681B6C43F004027B681A647B68002217
:1014CC0083F83C20012300E0002318460C37BD466E
:1014DC0080BC704780B586B000AF78607B68002B0D
:1014EC0001D1012372E27B681B6803F00103002B1E
:1014FC0000F08780924B5B6803F00C03042B0CD03C
:10150C008F4B5B6803F00C03082B12D18C4B5B6880
:10151C0003F48033B3F5803F0BD1894B1B6803F484
:10152C000033002B6CD07B685B68002B68D10123E7
:10153C004CE27B685B68B3F5803F06D1804B1B683F
:10154C007F4A43F4803313602EE07B685B68002B8A
:10155C000CD17B4B1B687A4A23F480331360784B95
:10156C001B68774A23F4802313601DE07B685B685B
:10157C00B3F5A02F0CD1724B1B68714A43F4802336
:10158C0013606F4B1B686E4A43F4803313600BE09F
:10159C006B4B1B686A4A23F480331360684B1B68DF
:1015AC00674A23F4802313607B685B68002B13D09D
:1015BC00FFF7A0F8386108E0FFF79CF802463B699A
:1015CC00D31A642B01D9032300E25D4B1B6803F48F
:1015DC000033002BF0D014E0FFF78CF8386108E0F2
:1015EC00FFF788F802463B69D31A642B01D9032311
:1015FC00ECE1534B1B6803F40033002BF0D100E0FB
:10160C0000BF7B681B6803F00203002B63D04C4BBC
:10161C005B6803F00C03002B0BD0494B5B6803F0A9
:10162C000C03082B1CD1464B5B6803F48033002B56
:10163C0016D1434B1B6803F00203002B05D07B68CB
:10164C001B69012B01D00123C0E13D4B1B6823F02A
:10165C00F8027B685B69DB00394913430B603AE0A5
:10166C007B681B69002B20D0364B01221A60FFF7D8
:10167C0041F8386108E0FFF73DF802463B69D31AA0
:10168C00022B01D90323A1E12D4B1B6803F00203AC
:10169C00002BF0D02A4B1B6823F0F8027B685B69A7
:1016AC00DB00274913430B6015E0264B00221A6020
:1016BC00FFF720F8386108E0FFF71CF802463B6999
:1016CC00D31A022B01D9032380E11D4B1B6803F0B5
:1016DC000203002BF0D17B681B6803F00803002B7E
:1016EC003AD07B689B69002B19D0174B01221A60EA
:1016FC00FFF700F8386108E0FEF7FCFF02463B6993
:10170C00D31A022B01D9032360E10D4B5B6A03F062
:10171C000203002BF0D0012000F0C4FA1CE00A4BAD
:10172C0000221A60FEF7E6FF38610FE0FEF7E2FFD9
:10173C0002463B69D31A022B08D9032346E100BFAA
:10174C00001002400000424280044242924B5B6A0D
:10175C0003F00203002BE9D17B681B6803F0040340
:10176C00002B00F0A6800023FB758B4BDB6903F08C
:10177C008053002B0DD1884BDB69874A43F0805393
:10178C00D361854BDB6903F08053BB60BB680123DD
:10179C00FB75824B1B6803F48073002B18D17F4BB5
:1017AC001B687E4A43F480731360FEF7A3FF386115
:1017BC0008E0FEF79FFF02463B69D31A642B01D960
:1017CC00032303E1754B1B6803F48073002BF0D0EB
:1017DC007B68DB68012B06D16F4B1B6A6E4A43F0AA
:1017EC00010313622DE07B68DB68002B0CD16A4B84
:1017FC001B6A694A23F001031362674B1B6A664A32
:10180C0023F0040313621CE07B68DB68052B0CD10E
:10181C00614B1B6A604A43F0040313625E4B1B6A04
:10182C005D4A43F0010313620BE05B4B1B6A5A4A9F
:10183C0023F001031362584B1B6A574A23F004032D
:10184C0013627B68DB68002B15D0FEF753FF386101
:10185C000AE0FEF74FFF02463B69D31A41F2883289
:10186C00934201D90323B1E04B4B1B6A03F00203F3
:10187C00002BEED014E0FEF73DFF38610AE0FEF7D6
:10188C0039FF02463B69D31A41F28832934201D99F
:10189C0003239BE0404B1B6A03F00203002BEED1A9
:1018AC00FB7D012B05D13C4BDB693B4A23F080537C
:1018BC00D3617B68DB69002B00F08780364B5B685B
:1018CC0003F00C03082B61D07B68DB69022B46D13B
:1018DC00334B00221A60FEF70DFF386108E0FEF76B
:1018EC0009FF02463B69D31A022B01D903236DE091
:1018FC00294B1B6803F00073002BF0D17B681B6A2B
:10190C00B3F5803F08D1244B5B6823F400327B682D
:10191C009B68214913434B601F4B5B6823F4741283
:10192C007B68196A7B685B6A0B431B4913434B60EA
:10193C001B4B01221A60FEF7DDFE386108E0FEF752
:10194C00D9FE02463B69D31A022B01D903233DE091
:10195C00114B1B6803F00073002BF0D035E0104BDB
:10196C0000221A60FEF7C6FE386108E0FEF7C2FEE0
:10197C0002463B69D31A022B01D9032326E0064BFE
:10198C001B6803F00073002BF0D11EE07B68DB6951
:10199C00012B07D1012319E0001002400070004018
:1019AC00600042420B4B5B68FB60FB6803F48032C7
:1019BC007B681B6A9A4206D1FB6803F470127B6841
:1019CC005B6A9A4201D0012300E0002318461837C5
:1019DC00BD4680BD0010024080B584B000AF786079
:1019EC0039607B68002B01D10123D0E06A4B1B6866
:1019FC0003F007033A689A4210D9674B1B6823F02F
:101A0C00070265493B6813430B60634B1B6803F08B
:101A1C0007033A689A4201D00123B8E07B681B683F
:101A2C0003F00203002B20D07B681B6803F0040337
:101A3C00002B05D0594B5B68584A43F4E063536064
:101A4C007B681B6803F00803002B05D0534B5B68C5
:101A5C00524A43F460535360504B5B6823F0F002DE
:101A6C007B689B684D4913434B607B681B6803F094
:101A7C000103002B40D07B685B68012B07D1474BDF
:101A8C001B6803F40033002B15D101237FE07B6826
:101A9C005B68022B07D1414B1B6803F00073002BD2
:101AAC0009D1012373E03D4B1B6803F00203002BAB
:101ABC0001D101236BE0394B5B6823F003027B6897
:101ACC005B68364913434B60FEF714FEF8600AE07E
:101ADC00FEF710FE0246FB68D31A41F2883293429D
:101AEC0001D9032353E02D4B5B6803F00C027B6898
:101AFC005B689B009A42EBD1274B1B6803F00703F2
:101B0C003A689A4210D2244B1B6823F007022249F0
:101B1C003B6813430B60204B1B6803F007033A68C8
:101B2C009A4201D0012332E07B681B6803F0040366
:101B3C00002B08D0194B5B6823F4E0627B68DB68F0
:101B4C00164913434B607B681B6803F00803002B9A
:101B5C0009D0124B5B6823F460527B681B69DB0075
:101B6C000E4913434B6000F021F802460B4B5B68A7
:101B7C001B0903F00F030A49CB5C22FA03F3094A51
:101B8C001360094B1B681846FEF772FD00231846BC
:101B9C001037BD4680BD00BF00200240001002403F
:101BAC00981D0008000000200400002090B48AB0AA
:101BBC0000AF294B3C1D0FCB84E80F0040F20123F2
:101BCC003B800023FB610023BB6100237B6200236D
:101BDC007B6100233B62214B5B68FB61FB6903F07B
:101BEC000C03042B02D0082B03D02BE01C4B3B62C4
:101BFC002BE0FB699B0C03F00F0328333B4413F8D9
:101C0C00243C7B61FB6903F48033002B12D0134B13
:101C1C005B685B0C03F0010328333B4413F8283C4E
:101C2C00BB617B690E4A03FB02F2BB69B2FBF3F3A7
:101C3C007B6204E07B690B4A02FB03F37B627B6AE9
:101C4C003B6202E0064B3B6200BF3B6A18462837FA
:101C5C00BD4690BC704700BF881D000800100240B4
:101C6C0000127A0000093D0080B400AF024B1B68E3
:101C7C001846BD4680BC70470000002080B500AF00
:101C8C00FFF7F2FF0246054B5B681B0A03F00703E4
:101C9C000349CB5C22FA03F3184680BD00100240C6
:101CAC00A81D000880B485B000AF78600A4B1B6893
:101CBC000A4AA2FB03235B0A7A6802FB03F3FB606C
:101CCC0000BFFB685A1EFA60002BF9D100BF00BFA1
:101CDC001437BD4680BC704700000020D34D621005
:101CEC0070B500260C4D0D4C641BA410A64209D1F6
:101CFC0000F022F800260A4D0A4C641BA410A642E0
:101D0C0005D170BD55F8043B98470136EEE755F800
:101D1C00043B98470136F2E7B01D0008B01D0008DF
:101D2C00B01D0008B41D000803460244934200D1C4
:101D3C00704703F8011BF9E7F8B500BFF8BC08BC05
:101D4C009E467047F8B500BFF8BC08BC9E4670476D
:101D5C0053797374656D20426F6F7420446F6E6598
:101D6C000000000057616974696E672E2E2E00000A
:101D7C0057656C636F6D652E2E2E000002030405F3
:101D8C00060708090A0B0C0D0E0F101000000000BE
:101D9C00000000000102030406070809000000000F
:041DAC000102030429
:041DB00031010008F5
:041DB4000D01000815
:0C1DB8000024F4001000000001000000F6
:0400000508000605E4
:00000001FF
